:100000000C946D000C94BC000C94BC000C94BC00CF
:100010000C94BC000C94BC000C94DC1D0C94BC0033
:100020000C94BC000C94BC000C94BC000C94BC0060
:100030000C94BC000C94BC000C94BC000C94F31405
:100040000C94BC000C94BC000C9436190C949A19B6
:100050000C94BC000C94BC000C94BC000C94BC0030
:100060000C94BC000C94BC000C94BC000C94BC0020
:100070000C94BC000C94BC000C94BC000C94BC0010
:100080000C94BC000C94BC000C94BC00701F7C1F32
:100090008C1F971FAA1FAD1FB01FB31FB61FDB1FFA
:1000A0000C20492034205620142025203C204420B8
:1000B000632074206D1F6D1F6D1F6D1F84208920AC
:1000C0008C20A020AD20B9206D1FC620D120DE20BD
:1000D000E920F62001210E21192180EC85BF87E05F
:1000E00089B98093990011241FBECFEFD0E1DEBF04
:1000F000CDBF12E0A0E0B1E0EAE4F5E900E00BBF1B
:1001000002C007900D92AA37B107D9F713E0AAE70A
:10011000B2E001C01D92A138B107E1F78FEF9FE770
:100120009EBF8DBF8FEF9FE78158934081589140CC
:1001300040F06FEF7EE76158734081E893E00E94E2
:10014000D70C0E94F612892B59F0A7E4B3E0E3E63E
:10015000F1E089E001900D928150E1F70E94DD12FB
:1001600020E831E040E050E062EB7BE08CE691E09B
:100170000E9459130C9400000C94000060918002BE
:100180007091810299270E940D4908958091800203
:10019000909181020E94874899270895809180025A
:1001A000909181020E9487482FEF8F3F920749F07C
:1001B00060918002709181020E94FD4881E090E090
:1001C000089580E090E008950F931F93CF93DF93FD
:1001D0008C01EB010E941D06823061F0843019F41D
:1001E0000FC00E94C6000E94CE008823D1F780E095
:1001F00090E00BC0C8010E94930280E090E005C02F
:10020000BE01C8010E944F059927DF91CF911F9130
:100210000F910895CF93DF93EC010E94CE008823C5
:1002200029F060E070E0CE010E94E400DF91CF9100
:100230000895EF92FF920F931F93CF93DF938C015A
:100240007B01C0E5D3EC03C02097E1F021970E9429
:10025000CE008823C9F3CD2BA9F0E8012196F8013F
:10026000208188819927982F8827B701820F911DB7
:100270000E94E400282F882391F380E090E0213051
:1002800031F403C080E090E002C081E090E0DF91B3
:10029000CF911F910F91FF90EF90089504C082E0DD
:1002A00090E00E940A0180911F018823C1F381E040
:1002B0000E945C0608951F930E944E0163E070E067
:1002C00083E191E00E94810614E60E94CE0088231B
:1002D00069F480E090E00000019629E28432920700
:1002E000D1F7115090F780E090E007C060E070E037
:1002F00083E191E00E94190199271F9108950097C9
:1003000021F077270E9481060895862F99270E9461
:100310005F0608958F929F92AF92BF92CF92DF9225
:10032000EF92FF920F931F93CF93DF93CDB7DEB77A
:1003300022970FB6F894DEBF0FBECDBFC988DA880A
:100340000C898B89E82EFF24AA24BB2445E1842E46
:10035000912C8C0E9D1E9A8289820E944E01B701BB
:10036000C6010E94810607FD25C0002361F110E04F
:1003700006C02050304CC9F01F5F011721F1E98100
:10038000FA81808191813496FA83E983349762817E
:1003900073819B012070307C2115310551F70E943B
:1003A00081061F5F011759F70EC0CB019F730E9492
:1003B0005F06E2CFE981FA813296FA83E983B2904F
:1003C000A2900F77D2CFB501C6010E9419018823F0
:1003D00009F4C1CF22960FB6F894DEBF0FBECDBF91
:1003E000DF91CF911F910F91FF90EF90DF90CF9011
:1003F000BF90AF909F908F9008958FEE90EC9F9359
:100400008F931F921F9289E090E09F938F9380E0DB
:1004100091E09F938F9382E08F9383E08F9386E1A7
:1004200091E09F938F930E948A018DB79EB70C969F
:100430000FB6F8949EBF0FBE8DBF08950E94800333
:100440000E945B01882309F408950E94FD011F9218
:1004500086E08F938DE091E09F938F930E948A01B5
:100460001F9284E08F9389E091E09F938F930E9485
:100470008A010E94EE058DB79EB708960FB6F894D4
:100480009EBF0FBE8DBF089580917C0290917D022A
:10049000089570937D0260937C0290937B02809319
:1004A0007A02089520917A0230917B02280F391F39
:1004B00030937B0220937A020895FF920F931F934B
:1004C000CF93DF93EC018B01F42E80917A0290910F
:1004D0007B02009751F481E090E00E940A01809134
:1004E0007A0290917B020097B1F3019790937B027F
:1004F00080937A0282E00E945C06FF2031F08881BE
:10050000998190620E94740605C0888199819061EA
:100510000E947406C8010E947406DF91CF911F915A
:100520000F91FF900895EF92FF920F931F93CF9337
:10053000DF93EC010E9425067C010E9425068C01B8
:10054000C7019F700E94A103FC010115110501F173
:100550002197229760F0892B51F0C7018070907F1E
:1005600020E18030920739F08050904269F0C80154
:100570000E9432060DC080859185892BC1F31093AE
:10058000DA020093D90204C0B801CF010E942E0AFA
:10059000DF91CF911F910F91FF90EF90089504C0CC
:1005A00080E090E00E940A018091D9029091DA02E5
:1005B0000097B1F301979093DA028093D9020E94D9
:1005C0001D06992708951F93182F11501F3F21F0E2
:1005D0000E94CF021150E0F71F9108951F930E94CF
:1005E000CF02182F0E94CF029927982F8827810FBA
:1005F000911D1F910895EF92FF920F931F93CF9338
:10060000DF93EC01E981FA818081918183529041ED
:1006100019F080E090E052C08881823891F08338F0
:10062000B9F0813819F081E090E048C081E090E0B5
:100630009093850280938402F093F302E093F20298
:100640003DC0109285021092840281E090E036C095
:100650008091820290918302892B29F30680F78191
:10066000E02D00851185C8010E945D497C01A8012B
:10067000BC0189819A810E94360720917E023091C7
:100680007F02A80161E070E0C7010E943549181699
:10069000190644F480917E0290917F020E94DF4708
:1006A000892B39F0109283021092820281E090E04F
:1006B00005C0C7010E945A4981E090E0DF91CF91C7
:1006C0001F910F91FF90EF900895CF93DF93CDB7D7
:1006D000DEB723970FB6F894DEBF0FBECDBF898378
:1006E0007B836A83CE0101960E94FB0299272396A1
:1006F0000FB6F894DEBF0FBECDBFDF91CF91089546
:100700008FEF9FEF9093DE028093DD02089580913A
:10071000DD029091DE028F5F9F4F81F4EDEDF2E0FC
:10072000119282E0E23FF807D9F78FEF9FEF9093A5
:10073000DE028093DD02CF014597089580E090E0CE
:1007400008952091DD023091DE022817390719F44F
:100750008DED92E0089580E090E00895FC0185859C
:100760009685892B19F08FEF90E0089580E090E056
:1007700008950F931F93CF93DF93CDB7DEB72497E0
:100780000FB6F894DEBF0FBECDBF64E070E0CE01BF
:1007900001960E9446068A819B810E94A1038C01DA
:1007A000009759F00E94B007B80185E00E946503E8
:1007B0008FEF9FEFF8019183808324960FB6F89412
:1007C000DEBF0FBECDBFDF91CF911F910F91089576
:1007D000CF93DF93CDB7DEB72B970FB6F894DEBF7C
:1007E0000FBECDBF6BE070E0CE0101960E944606C1
:1007F0008981882301F50E948703BC01892B09F1B7
:100800008A819B81FB0181939193DE0114969E0165
:10081000265F3F4F8D918193A217B307D9F7FB0154
:100820003D96CB01459611928E179F07E1F784E024
:100830000E9465030DC060E070E089E00E946503DE
:1008400007C080E4898360E070E089E00E9465036E
:100850002B960FB6F894DEBF0FBECDBFDF91CF91C0
:100860000895EF92FF921F93CF93DF93CDB7DEB73A
:100870002A970FB6F894DEBF0FBECDBF82E0E82EF8
:10088000F12CEC0EFD1E69E070E0C7010E944606E7
:100890008A81882319F48B81882309F111E00E9451
:1008A0001D06813051F11123B9F48EE0898381E076
:1008B00090E09F938F93CE0101969F938F9386E054
:1008C00090E09F938F93FF92EF9282E08F9383E06B
:1008D0008F9389E191E02DC08DE08983E8CF8C81F1
:1008E0008823E1F68D818823C9F68E818823B1F6AD
:1008F0008F81811181E0182FD2CF0E948703892B2D
:1009000091F2112391F281E0898381E090E09F933D
:100910008F93CE0101969F938F9386E090E09F93F3
:100920008F93FF92EF9282E08F9383E08F938CE11D
:1009300091E09F938F930E948A018DB79EB70C968A
:100940000FB6F8949EBF0FBE8DBF2A960FB6F894CF
:10095000DEBF0FBECDBFDF91CF911F91FF90EF9013
:1009600008950F931F93CF93DF93CDB7DEB72697EC
:100970000FB6F894DEBF0FBECDBF66E070E08E010B
:100980000F5F1F4FC8010E94460686E090E09F93CC
:100990008F931F930F9381E08F9383E08F9380E277
:1009A00091E09F938F930E948A018DB79EB708961E
:1009B0000FB6F8949EBF0FBE8DBF26960FB6F89463
:1009C000DEBF0FBECDBFDF91CF911F910F91089574
:1009D000FF920F931F93CF93DF93CDB7DEB7279787
:1009E0000FB6F894DEBF0FBECDBF84E0F82EF982BB
:1009F0008E010E5F1F4F66E070E0C8010E94460640
:100A00008CE090EC9F938F931F921F9284E090E074
:100A10009F938F9386E291E09F938F9381E090E084
:100A20009F938F93CE0101969F938F9386E090E0E2
:100A30009F938F931F930F93FF9283E08F9383E293
:100A400091E09F938F930E948A018DB79EB7449641
:100A50000FB6F8949EBF0FBE8DBF27960FB6F894C1
:100A6000DEBF0FBECDBFDF91CF911F910F91FF90E1
:100A700008950F931F930E941D06082F882361F08D
:100A800010E082E090E00E9432060E9425060E945B
:100A900052021F5F0117A9F71F910F910895EF925E
:100AA000FF920F931F93CF93DF93EC017B010E9482
:100AB0001D06182F0E941D06082F1F30D1F110317E
:100AC00090F0133109F454C0143108F441C01631C8
:100AD00009F45AC01731F1F58630E1F50E94B104EE
:100AE000C0E0D0E073C0143009F447C01530C8F13D
:100AF000153009F456C01E3069F50E941D0680931A
:100B00001F010E942506C330D10508F04FC021E027
:100B1000C1E0D0E0043008F459C0E114F10419F048
:100B2000213009F44CC0802F992703970E94320688
:100B30004DC00E941D060E941D0680931F010E9449
:100B4000250620E0C817D907E9F0C22FDD273EC0EF
:100B5000103109F1802F99270E943206C0E0D0E0C1
:100B600035C01330B9F70E94E803C0E0D0E02EC0D2
:100B70000E943905C0E0D0E029C00E943104C0E0E5
:100B8000D0E024C021E0E1CF863021F70E94E804C4
:100B9000C0E0D0E01BC099270E943206C2E0D0E03E
:100BA00015C00E94B903C0E0D0E010C020E0C81713
:100BB000D90719F0C22FDD27ADCF21E0FBCF602F81
:100BC000772763507040C7010E944606CE01DF912F
:100BD000CF911F910F91FF90EF900895CF93DF93E6
:100BE000CDB7DEB728970FB6F894DEBF0FBECDBFE6
:100BF000CE0101969F938F9380E88F9383E08F932C
:100C00008AE291E09F938F930E948A016A817B819F
:100C10008D819E810E9449028DB79EB706960FB6C0
:100C2000F8949EBF0FBE8DBF28960FB6F894DEBF16
:100C30000FBECDBFDF91CF9108950E94CE008823D3
:100C4000E1F30E94C600992708951F930E941D0694
:100C5000182F0E941D069927982F8827810F911D14
:100C60001F9108950F931F93CF93DF938C01892BCE
:100C700041F0C0E0D0E00E941D0621960C171D0730
:100C8000D1F7DF91CF911F910F9108950F931F938B
:100C9000CF93DF936115710551F0EC018B01080FC3
:100CA000191F0E941D068993C017D107D1F7DF9144
:100CB000CF911F910F9108950E94BE0008950F9348
:100CC0001F93CF93DF938C01892B49F0C0E0D0E0D4
:100CD00080E00E945C0621960C171D07C9F7DF9182
:100CE000CF911F910F9108950F931F938C010E9434
:100CF0005C06012F1127802F0E945C061F910F9127
:100D000008950F931F93CF93DF936115710551F0F1
:100D1000EC018B01080F191F89910E945C06C01716
:100D2000D107D1F7DF91CF911F910F9108950F93C4
:100D30001F93CF93DF938C01892B51F0C0E0D0E05B
:100D40000E941D060E945C0621960C171D07C1F724
:100D5000DF91CF911F910F910895CF92DF92EF9283
:100D6000FF920F931F93CF93DF936C018A017B0156
:100D70000E9444020497F601C681D7811B870A8727
:100D80001093DC020093DB028017910720F490930C
:100D9000DC028093DB026091DB027091DC026C5F0D
:100DA0007F4F41E0CE010E945D02C8010E9474069F
:100DB000F601828193810E9474066091DB0270913A
:100DC000DC026017710760F031C040E0CE010E9484
:100DD0005D026091DB027091DC026017710730F5F3
:100DE000C7010E9481062091DB023091DC02021BC8
:100DF000130B8A859B85821B930B9B878A87E20E48
:100E0000F31E9093DC028093DB020E944402609107
:100E1000DB027091DC0286179707B8F60E94440245
:100E2000BC019093DC028093DB02CFCF011511054A
:100E3000A1F0B801C7010E9481068A859B85801BAD
:100E4000910B9B878A878091DB029091DC02801B4B
:100E5000910B9093DC028093DB02DF91CF911F9185
:100E60000F91FF90EF90DF90CF900895CF92DF9297
:100E7000EF92FF920F931F93CF93DF93EB01FC014F
:100E8000C680D780F601E084F1844E155F0508F432
:100E90007A01E114F10429F43EC080E090E00E9460
:100EA0000A012091D9023091DA0221153105A9F306
:100EB000F601808591852817390708F4C901AC012E
:100EC000E816F90608F4A701E41AF50A241B350B05
:100ED0003093DA022093D902F60180859185841B34
:100EE000950B91878087209781F04115510549F036
:100EF0008A010C0F1D1F0E941D068993C017D10780
:100F0000D1F7E114F10469F606C0CA010E94320665
:100F1000E114F10431F6DF91CF911F910F91FF9011
:100F2000EF90DF90CF900895CF93DF93CDB7DEB7EA
:100F300021970FB6F894DEBF0FBECDBF41E050E061
:100F4000BE016F5F7F4F0E943607898199272196E6
:100F50000FB6F894DEBF0FBECDBFDF91CF910895DD
:100F6000CF93DF93EC018D859E85892B31F0BE01F7
:100F7000635F7F4F82E80E9465031E861D86DF91B6
:100F8000CF910895EF92FF920F931F93CF93DF932A
:100F90007C01062FEA010E94EE02182F10540E94D5
:100FA000EE020E94EE02C730D10520F5612F7727AF
:100FB000202F3327660F771F660F771F660F771F67
:100FC000FB01EE0DFF1D8189928928173907C1F4B5
:100FD000858596859C013F7B368725878070907834
:100FE000892B71F4635F7F4F6E0D7F1D81E80E9436
:100FF000650306C09E012650822F0E94E302D6CFD1
:10100000DF91CF911F910F91FF90EF900895DF92A4
:10101000EF92FF920F931F93CF93DF93EC01F62E85
:10102000E42ED22EB801685F7F4F41E00E945D023E
:10103000C80104960E94740681E090E00E94740644
:101040008F2D0E945C06EE20D1F48C858F5F8C87FB
:10105000882391F08C850E945C06ED2DFF27EE0F12
:10106000FF1FEE0FFF1FEE0FFF1FEC0FFD1F8C8504
:101070009927928B818B06C081E08C87EBCF8E2DD8
:101080000E945C06C8010E947406DF91CF911F91F7
:101090000F91FF90EF90DF9008955F926F927F9293
:1010A0008F929F92AF92BF92CF92DF92EF92FF9278
:1010B0000F931F93CF93DF93CDB7DEB74C01562E1E
:1010C0006A016DB67EB68DB79EB7841B950B0FB6C1
:1010D000F8949EBF0FBE8DBFADB6BEB60894A11CDE
:1010E000B11C452B69F000E010E075010E94CF02B1
:1010F000F70181937F010F5F1F4FC016D106B1F733
:10110000860120E0452D69E0C4010E940708B60170
:10111000C5010E9481060FB6F8947EBE0FBE6DBE5B
:10112000DF91CF911F910F91FF90EF90DF90CF90C3
:10113000BF90AF909F908F907F906F905F90089539
:10114000BF92CF92DF92EF92FF920F931F936C01A9
:10115000B62E0E94EE0230ECE32EE80E0E94EE0264
:1011600004E010E020E04B2D67E0C6010E94070874
:10117000FF24C701805C9F4F0E947406EE0CFF1C89
:10118000EE0CFF1CEE0CFF1C87010C0D1D1DF80161
:10119000878590890E9474068DE090E0E80EF91E24
:1011A000EC0CFD1CB70182E80E946503F80116866D
:1011B00015861F910F91FF90EF90DF90CF90BF9019
:1011C00008952F923F924F925F926F927F928F92EB
:1011D0009F92AF92BF92CF92DF92EF92FF920F93C6
:1011E0001F93CF93DF93CDB7DEB74C01C62E7A01A4
:1011F0002DB63EB68CEF9FEFE80EF91EEDB7FEB7A9
:10120000EE19FF090FB6F894FEBF0FBEEDBFADB6E5
:10121000BEB60894A11CB11C0E94EE0250EC652ED3
:101220005FEF752E680E791E0E94EE022C01E1140C
:10123000F10479F0DD2400E010E00E94CF020A0DF5
:101240001B1DF8018083D3940D2D11270E151F054A
:10125000A0F306E010E020E04C2D65E0C4010E9400
:1012600007087301EE0CFF1CEE0CFF1CEE0CFF1CBC
:101270008701080D191DF801878590890E94740661
:1012800080E090E00E947406C2010E947406F8019A
:1012900025853685C9019F779687858736FD0AC0E3
:1012A0008DE090E0E80EF91EE80CF91CB70181E82A
:1012B0000E9465030FB6F8943EBE0FBE2DBEDF91AF
:1012C000CF911F910F91FF90EF90DF90CF90BF9043
:1012D000AF909F908F907F906F905F904F903F90D6
:1012E0002F900895DF92EF92FF920F931F937C014E
:1012F000D62E04E010E0262F40E064E00E940708AC
:10130000ED2DFF27EE0FFF1FEE0FFF1FEE0FFF1F4C
:10131000EE0DFF1D878590890E94740680E090E0A5
:101320000E9474061F910F91FF90EF90DF90089537
:101330008F929F92AF92BF92CF92DF92EF92FF92E5
:101340000F931F93CF93DF936C01962E0E94AE03F1
:10135000882E8FEF881609F457C0E82CFF240E94CE
:10136000EE025701AA0CBB1CAA0CBB1CAA0CBB1C8E
:10137000E501CC0DDD1D906C9E878D870E94EE02ED
:10138000988B8F87DC8ACB8A08E010E020E0492D1B
:1013900063E0C6010E940708C701805C9F4F0E945E
:1013A00074068F8598890E9474060D851E85C80174
:1013B0009F739E878D87B501635F7F4F6C0D7D1D89
:1013C00080E80E9465038823C1F080E090E00E94DD
:1013D00074061E870D8780E090E00E947406AC0CB6
:1013E000BD1CF50185859685892B59F19394492D6E
:1013F000682DC6010E94720924C082E090E00E941C
:1014000074061E861D86E7CF0E94EE020E94EE0241
:101410007C0108E010E020E0492D63E0C6010E9455
:10142000070880E090E00E947406C7010E947406DD
:1014300084E090E00E94740678EFA72E77E0B72E44
:10144000CACFDF91CF911F910F91FF90EF90DF9066
:10145000CF90BF90AF909F908F900895EF92FF92A2
:101460000F931F93CF93DF938C017093DA026093F5
:10147000D9020E94EE02F801918780870E94EE0255
:1014800081309105E1F0EC01CC0FDD1FCC0FDD1FA9
:10149000CC0FDD1FC00FD11FC35FD140BE0183E859
:1014A0000E946503F801408551854115510509F4F5
:1014B00047C060E070E0CE010E94360741C00E9444
:1014C000CF02F82E0E94CF02E82E0E94EE02AC015D
:1014D000F8012085318504968217930721F0822F29
:1014E0000E94E3022DC0F5E0FF1609F1FF1558F048
:1014F00082E0F81691F0E4E0FE1659F46E2DC80172
:101500000E94E1081DC0F6E0FF1661F088E0F816C1
:1015100099F0842F0E94E30213C06E2DC8010E942F
:1015200098090EC06E2DC8010E94A00809C06E2D3A
:10153000C8010E94C20704C06E2DC8010E944D0858
:10154000DF91CF911F910F91FF90EF90089504C00C
:1015500080E090E00E940A018091820290918302D3
:10156000892BB1F708958091820290918302892B93
:1015700041F40E947E0E8091820290918302892B19
:10158000C1F380E40E94F60D0E94A70A80E80E9441
:10159000F60DEFCFCF93DF9380E890E00E945D4996
:1015A000EC018091820290918302892B69F1209154
:1015B0007E0230917F0240E850E061E070E0CE01B1
:1015C0000E94B348AC0118161906D4F48091840225
:1015D00090918502892B29F3BE018091F2029091AE
:1015E000F3020E94AD0680918002909181020E94D8
:1015F000DF478091820290918302892BC1F604C05B
:101600001092830210928202CE010E945A49DF9109
:10161000CF9108958F929F92AF92BF92CF92DF9217
:10162000EF92FF920F931F93CF93DF93CDB7DEB767
:101630002F970FB6F894DEBF0FBECDBF80E092ECBF
:10164000A1E0B0E08D839E83AF83B88719821A82B0
:101650001B821C8240E060E070E08DE791E00E9418
:10166000AF1245E060E073E889EF91E00E94AF12AD
:101670006DE271E081E391E00E9420489093810245
:10168000809380020E94F047AE014B5F5F4F61E0A4
:1016900071E00E94334780918002909181020E9404
:1016A000F047AE014F5F5F4F6BE071E00E94334740
:1016B0000E941E0299E0892E912C8C0E9D1EF40131
:1016C000ACE5B1E087E00D9001928150E1F787E34E
:1016D00091E00E94312E5B016C0185E491E00E9453
:1016E000312E7B018C01A6019501B40183E591E0C7
:1016F0000E942D3120E030E140E050E063EB7AE0E1
:1017000088E591E00E9459131092830210928202A0
:1017100081E0E82EF12C0E94082B8C0167E170E03B
:101720000E94AB2B6DE271E0C8010E948647909346
:101730007F0280937E02F0928302E09282020E94F6
:10174000CA0A80917E0290917F020E9446471092C1
:101750007F0210927E02C8010E94562ADCCF80933D
:10176000760108950E941A1120E033E040E050E035
:101770006AE07BE081E791E00E9459138EEF0E94BE
:10178000F60D0E947E0E0E94B50D209176012F3F2E
:10179000C1F395B785B7837E822B85BF85B78062FD
:1017A00085BF889585B78F7D85BF85B7837E9C7102
:1017B000892B85BF0E947E0E0E94B50D2091760177
:1017C0002F3F39F7DECF0F931F93CF93DF93009115
:1017D0008702109188028017910708F062C0AC015F
:1017E0004A5F5F4F4430510508F458C0E09134031C
:1017F000F0913503309709F454C064E373E0C0E01E
:10180000D0E0A0E0B0E004C0BF016E5F7F4FFC01FC
:10181000208131812417350768F04217530709F4F6
:1018200048C0209729F0888199812817390710F43A
:10183000EF01DB0182819381009731F7CE01209780
:10184000D9F128813981CA010A968217930760F578
:10185000FA01EC0FFD1F241B350B318320838A8195
:101860009B81938382839A0159834883ED93FC93F0
:10187000021B130B10938802009387022C0F3D1F4D
:10188000245030408FEE9EEBADEABEEDF90180832F
:101890009183A283B383CE0102960EC044E050E050
:1018A000A5CF80E090E008C08A819B818D939C93B6
:1018B000DFCFEF01DB01C5CFDF91CF911F910F91FA
:1018C0000895CF93DF93DC0112974D915C911197AE
:1018D000E0913403F0913503C4E3D3E0309759F13C
:1018E00020813181CF01820F931F8A179B07A1F4BA
:1018F00034C0A817B90708F449C0EF012296028046
:10190000F381E02D3097B9F020813181C9018E0F2C
:101910009F1F8A179B0709F1AE17BF0750F7B983BE
:10192000A883CA018A0F9B1F8E179F0791F1ED01B3
:10193000FB83EA8305C0FD0113821282B983A88369
:101940008091870290918802840F951F909388025E
:101950008093870280E090E027C0240F351F3183F9
:10196000208382819381D901AE0FBF1FA817B907C9
:1019700039F78D919C911197280F391F318320835E
:10198000ED018A819B8193838283DACF8FEF9FEF72
:101990000BC0240F351F11963C932E9382819381A7
:1019A000FD0193838283CCCFDF91CF910895FC0119
:1019B00061937193CF010E94610C08958091870219
:1019C0009091880208950F931F93CF93DF938C011A
:1019D0000E94E30BEC01009729F0A80160E070E0A1
:1019E0000E941F4ACE01DF91CF911F910F91089560
:1019F000CF93DF93DC019B01EC01788F6F8B1D820D
:101A00001C820FB6F8940F92EB01E881F9818FEFF9
:101A1000EF3FF80769F1309791F00F900FBEED019D
:101A20009A898289981740F09F012E5F3F4F02806C
:101A3000F381E02D3097A9F70FB6F8940F92ED01DE
:101A4000FB83EA83F901B183A083EA81FB813097AC
:101A5000C1F084819581892BA1F08C819D812481A5
:101A60003581820F931F9D838C831582148209C058
:101A7000ED018C819D8101969D838C83E0E0F0E0F7
:101A8000DECF0F900FBEDF91CF910895CF93DF93FC
:101A9000DC01EB010FB6F8940F92E881F9810F9009
:101AA0000FBE8FEFEF3FF80789F1309779F1EA1712
:101AB000FB0721F40BC0AE17BF0741F0EF012296E0
:101AC0000280F381E02D3097B1F720C00FB6F89473
:101AD0000F92FD018281938199838883848195810E
:101AE000892B69F00280F381E02D309729F0ED0118
:101AF0008C819D8195838483FD01158214820F90D2
:101B00000FBEED011B821A82188E1F8ADF91CF91C2
:101B10000895FB01168A158A82E0878768E373E0DF
:101B2000CF010E94F80C08950F931F93CF93DF937A
:101B30008C01C0913603D0913703209731F40EC049
:101B40000990D881C02D209749F0B801CE010696A2
:101B50000E94264A892BA1F7CE0102C080E090E0C6
:101B6000DF91CF911F910F910895E0913C03F09187
:101B70003D03309741F0838994890E94610C109253
:101B80003D0310923C030895CF93DF93C091360339
:101B9000D09137030E94B50D2097E9F080913A0368
:101BA00090913B03C817D90721F40AC0C817D90779
:101BB00049F0FE010990D881C02D2097B9F70FC0D8
:101BC000E6E3F3E0888199819183808380913A03F1
:101BD00090913B0304C080913A0390913B03909312
:101BE0003D0380933C03DF91CF9108950F931F93A2
:101BF000182FE0913A03F0913B03028968E373E008
:101C0000CF010E94460DE0913A03F0913B03128B05
:101C10001F3F01F168E373E080913A0390913B0329
:101C20000E94F80CE0913A03F0913B038091380355
:101C300090913903E817F90751F082E087870FB6D2
:101C4000F8940F920E941A130F900FBE06C081E005
:101C5000878703C00E94C40DE5CF802F99271F916D
:101C60000F9108958FEF0E94F60D0895CF93DF93A3
:101C7000C0913603D0913703209711F10FB6F89435
:101C80000F928C819D810F900FBE892BA1F0EF895F
:101C9000F88D0FB6F8940F928C819D8101979D83EA
:101CA0008C830F900FBE808191818F5F9F4F19F0C1
:101CB000CF010E9422110990D881C02D2097F1F602
:101CC0000E94C80FE0913A03F0913B0380913803E2
:101CD00090913903E817F90771F08785813041F059
:101CE0000FB6F8940F920E941A130F900FBE03C004
:101CF00082E08787F5CFDF91CF910895E0913A0395
:101D0000F0913B0382819381892B69F068E373E052
:101D1000CF010E94460D68E373E080913A039091F1
:101D20003B030E94F80C0E94360E089580914003F8
:101D300090914103A0914203B09143030196A11DEC
:101D4000B11D8093400390934103A0934203B0934D
:101D500043030895CF93DF93EC011B821A82E09135
:101D60003E03F0913F03309751F1288539854A852C
:101D70005B8580859185A285B385281739074A0739
:101D80005B0760F425C09C01AD0180859185A2852B
:101D9000B385281739074A075B07D0F0281B390B92
:101DA0004A0B5B0BDA01C901288739874A875B87B1
:101DB000FB83EA830190F081E02D309721F71982AF
:101DC0001882EA81FB81309799F0D183C08314C0D7
:101DD000821B930BA40BB50B80879187A287B387D7
:101DE000F983E883D383C283EA81FB81309769F763
:101DF000D0933F03C0933E03DF91CF9108950FB678
:101E0000F8940F92609140037091410380914203D6
:101E1000909143030F900FBE08952F923F924F92DF
:101E20005F926F927F928F929F92AF92BF92CF926A
:101E3000DF92EF92FF920F931F93CF93DF93CDB773
:101E4000DEB724970FB6F894DEBF0FBECDBF0E9459
:101E5000FF0E5B016C010E9415149B01AC01C601D1
:101E6000B5010E946F4A39014A010E9415141B01F5
:101E70002C010E94151469837A838B839C83C4018F
:101E8000B30128EE33E040E050E00E94304A7B018D
:101E90008C01C401B301A20191010E94304AA61A2B
:101EA000B70AC80AD90AC601B50128EE33E040E0F6
:101EB00050E00E94304A29813A814B815C810E9426
:101EC0006F4AE20EF31E041F151FC801B7012496C6
:101ED0000FB6F894DEBF0FBECDBFDF91CF911F913B
:101EE0000F91FF90EF90DF90CF90BF90AF909F90B9
:101EF0008F907F906F905F904F903F902F900895BC
:101F0000EF92FF920F931F930E94FF0E7B018C01B3
:101F10000E9415149B01AC01C801B7010E946F4AD1
:101F2000CA01B9011F910F91FF90EF900895CF93CF
:101F3000DF93FC01A281B3811097E9F08081918148
:101F40008D939C93C081D1812097E1F08281938110
:101F50009B838A8388859985AA85BB852085318561
:101F600042855385820F931FA41FB51F88879987C9
:101F7000AA87BB8707C08081918190933F0380939C
:101F80003E03E0CFCF010E94610CDF91CF91089515
:101F9000CF92DF92EF92FF920F931F93CF93DF9335
:101FA0000E94FF0E2091890230918A0240918B029B
:101FB00050918C027B018C01E21AF30A040B150B81
:101FC0006093890270938A0280938B0290938C02B3
:101FD000C0913E03D0913F036E01209709F460C089
:101FE000E114F1040105110509F45AC088859985A9
:101FF000AA85BB85E816F9060A071B0798F48E190F
:102000009F09A00BB10B88879987AA87BB87009788
:10201000A105B105C9F1EE24FF2487016E012097C7
:10202000F9F63EC0E81AF90A0A0B1B0B1886198646
:102030001A861B86EC85FD85309721F06E857F859D
:10204000CE0109958C819D81AE81BF81888799875A
:10205000AA87BB870097A105B105D1F0E0913E03A7
:10206000F0913F03C081D181D0933F03C0933E03E1
:10207000209711F01B821A82C6010E94AA0EC091FD
:102080003E03D0913F03A8CFEE24FF248701D2CF97
:10209000CE010E94970FC0913E03D0913F039CCF89
:1020A000DF91CF911F910F91FF90EF90DF90CF9034
:1020B00008958F929F92AF92BF92CF92DF92EF924C
:1020C000FF920F93CF93DF936B017C015A0149017B
:1020D00080E190E00E94E30BEC01892B31F10E943A
:1020E000FF0E6C0D7D1D8E1D9F1D2091890230916C
:1020F0008A0240918B0250918C02621B730B840BFD
:10210000950B688779878A879B8700FF09C01C82A7
:102110001D821E821F82BD86AC869F868E8605C06C
:10212000CC82DD82EE82FF82F6CFCE01DF91CF91AD
:102130000F91FF90EF90DF90CF90BF90AF909F9066
:102140008F9008950F93CF93DF930E945910EC0165
:10215000009711F00E94AA0ECE01DF91CF910F914E
:102160000895CF92DF92EF92FF920F936A01790167
:102170000E941A149701A6010E94A2100F91FF90CD
:10218000EF90DF90CF900895AF92BF92CF92DF9201
:10219000EF92FF920F93CF93DF935B016C01611578
:1021A00071058105910519F1C8E3D3E0BE01809165
:1021B0003A0390913B030E94460DE0913A03F0915F
:1021C0003B0383E08787E0903A03F0903B0301E014
:1021D000970149E85DE0C601B5010E94B110F70121
:1021E000968B858B892B31F00E94360E19C00E9488
:1021F0007E0E16C0E0913A03F0913B03D08FC78B5F
:1022000080913803909139039383828381E087879B
:1022100080913A0390913B03909339038093380364
:10222000DF91CF910F91FF90EF90DF90CF90BF9013
:10223000AF90089586E99EE00E943F1487B78260C0
:1022400087BF0895CF93DF93DC010FB6F8940F9208
:10225000CD91DC9111970F900FBE8FEFCF3FD80734
:1022600009F434C0209741F10FB6F8940F92EA8137
:10227000FB811196FC93EE938C819D81892B41F01B
:10228000309739F18C819D81958384831D821C82D6
:102290000F900FBE8D899E89009721F00E94970FA5
:1022A0001E8A1D8A82E08F8768E373E0CE010E9458
:1022B000F80C81E090E013C00FB6F8940F928FEF06
:1022C0009FEF11969C938E930F900FBE80E090E04D
:1022D00006C08FEF9FEF11969C938E93D7CFDF911F
:1022E000CF9108950F931F93CF93DF93EC010FB617
:1022F000F8940F92888199810F900FBE2FEF8F3F36
:102300009207A9F0892BE9F000E010E0CE010E94CD
:102310002211080F191F0FB6F8940F928881998126
:102320000F900FBE01978E5F9F4F80F30CC00FB6CA
:10233000F8940F92198218820F900FBE00E010E0FF
:1023400002C000E010E0C801DF91CF911F910F9112
:1023500008950F931F930E9472118C010E947E0EAC
:10236000C8011F910F9108950F931F930E9422118E
:102370008C010E947E0EC8011F910F910895CF938A
:10238000DF939C01FB010FB6F8940F92C081D181BD
:102390000F900FBE8FEFCF3FD80709F43FC02097B3
:1023A00009F43CC08D899E892817390731F40DC086
:1023B0008D899E898217930741F0FE0132960A802B
:1023C000DB81C02D2097A1F729C00FB6F8940F929A
:1023D0008A819B81918380838C819D81892B59F097
:1023E000AA81BB811097A9F08C819D81FD01958305
:1023F00084831D821C820F900FBE82E08F8768E36A
:1024000073E0CE010E94F80C8FEF9FEF9E8B8D8BB7
:1024100005C08FEF9FEF91838083EBCFDF91CF914A
:102420000895AF92BF92CF92DF92EF92FF920F93F7
:10243000CF93DF93EC015A016B010FB6F8940F9222
:10244000888199810F900FBE8F5F9F4F09F43EC026
:1024500068E373E080913A0390913B030E94460D3C
:10246000BE0180913A0390913B030E94F80CE091E9
:102470003A03F0913B0383E08787A114B104C104C0
:10248000D104A1F4E0913A03F0913B03168A158A36
:102490000E94360EE0913A03F0913B0385899689BC
:1024A0008F5F9F4FF9F080E090E020C0E0903A030A
:1024B000F0903B0301E09E014FEB51E1C601B501F5
:1024C0000E94B110F701968B858BE2CF0FB6F8947E
:1024D0000F92198218820F900FBE0E947E0E80E02C
:1024E00090E004C0168A158A8FEF9FEFDF91CF919D
:1024F0000F91FF90EF90DF90CF90BF90AF90089535
:10250000FC010FB6F8940F92808191818F5F9F4FED
:1025100011F4118210820F900FBECF010E94111290
:1025200008950F931F93CF93DF938C01C0918D0279
:10253000D0918E02209731F40CC00990D881C02D23
:10254000209739F0B801CE0102960E94264A892BC5
:10255000A1F7CE01DF91CF911F910F910895CF93F5
:10256000DF93EC01892B19F48FEF9FEF23C06115E6
:10257000710511F07D876C8741114E87CE0102965F
:102580000E949112892B81F7EB89FC89309769F4BD
:1025900080918D0290918E0299838883D0938E02D0
:1025A000C0938D0280E090E005C0CE010995892B93
:1025B00079F3DACFDF91CF91089583E180934403DB
:1025C0008FE48093450383E58093460343E150E025
:1025D00064E473E080E090E00E94F825892B19F410
:1025E00080E090E008958FEF9FEF089543E150E081
:1025F00064E473E080E090E00E94FB25892B41F4C5
:1026000080914403833121F4809145038F3419F084
:102610008FEF9FEF0895809146038335C9F780E0DF
:1026200090E008959F918F910F900BBE0F900FBE79
:102630001F9018952F923F924F925F926F927F92C8
:102640008F929F92AF92BF92CF92DF92EF92FF92C2
:102650000F931F93CF93DF938DB79EB7E0913A030B
:10266000F0913B03918B808BE0913803F09139031B
:10267000F0933B03E0933A0381E08787E0913A03CC
:10268000F0913B03808991898DBF9EBFDF91CF91EF
:102690001F910F91FF90EF90DF90CF90BF90AF9080
:1026A0009F908F907F906F905F904F903F902F9072
:1026B0000895AF92BF92CF92DF92EF92FF920F9365
:1026C0001F93CF93DF937C016B015A018901C901EC
:1026D00049960E94E30BEC01009709F472C0080FC1
:1026E000191F980127503040A8014B515040D80184
:1026F0001696F70188E001900D928150E1F7F801FC
:10270000168641505040518B408B4F5F5F4FD48BAA
:10271000C38B8FEE9EEBADEABEED88839983AA83CF
:10272000BB838C839D83AE83BF8388879987AA8769
:10273000BB878C879D87AE87BF8780E4828B8D2D7A
:102740009927F9018583C68280E8838312821482E7
:10275000A1828B2D9927808322E133E1832F992752
:10276000FA01828B238B8091360390913703F80115
:1027700091838083109337030093360382E0F82E11
:10278000F786168A158A108E178A68E373E0C801E7
:102790000E94F80CE0913A03F0913B033097A1F0CE
:1027A0008091380390913903E817F90741F0F786D3
:1027B0000FB6F8940F920E941A130F900FBEC80123
:1027C00008C080E090E005C00FB6F8940F924CCF9F
:1027D000E7CFDF91CF911F910F91FF90EF90DF90A6
:1027E000CF90BF90AF9008951F93182F60918F02E4
:1027F00070919002809191029091920220EA3FE0C4
:1028000040E050E00E946F4A822F932F0197F1F72A
:102810001A95D1F71F91089560918F0270919002DF
:102820008091910290919202089560E074E080E0BE
:1028300090E00895AF92BF92CF92DF92EF92FF9215
:102840000F931F937B018C010E9415145B016C0197
:10285000C801B70128EE33E040E050E00E94304A62
:10286000A60195010E946F4ACA01B9011F910F91FB
:10287000FF90EF90DF90CF90BF90AF900895BC0194
:1028800087B78D7F87BF80B7886080BF12BE82E028
:1028900083BF80B7992787709070892BD1F781E02B
:1028A00086BF0FB6F8940F9281E090E0A0E0B0E010
:1028B000B6B7B170E9F3B6BF0894811D911DA11D93
:1028C000B6B7B170C9F3BB270F900FBE880F991F21
:1028D000AA1FBB1F880F991FAA1FBB1F880F991F14
:1028E000AA1FBB1F880F991FAA1FBB1F880F991F04
:1028F000AA1FBB1F880F991FAA1FBB1F880F991FF4
:10290000AA1FBB1F80938F0290939002A093910205
:10291000B093920287B78D7F87BF80B7886080BFF2
:1029200012BE89E083BF8FE181BF80B7992787708E
:102930009070892BD1F782E086BF40E050E087E7B6
:1029400091E00E94101E08959C01FB0187B7482F5B
:1029500055274270507087B78D7F87BF2031310572
:10296000D1F02131310564F02231310509F12231F4
:1029700031056CF520E030E087B7826087BF31C059
:1029800021153105C1F021303105B9F02FEF3FEFAE
:10299000452B91F726C006B601FC14C011821082A7
:1029A000452B31F080819181806891838083E2CFD3
:1029B00020E030E016C040E050E082E086BF20E03A
:1029C00030E0E6CF81E090E091838083E9CF203250
:1029D0003105E1F68EE090E09183808320E030E0E5
:1029E000D7CFC90108951F920F920FB60F921124ED
:1029F0002F933F934F935F936F937F938F939F9307
:102A0000AF93BF93EF93FF9387E791E00E94021E7D
:102A1000FF91EF91BF91AF919F918F917F916F91B6
:102A20005F914F913F912F910F900FBE0F901F908C
:102A30001895FC01A281B38140919402242F332781
:102A4000C90180739070892B69F024FF2FC083E146
:102A50008CB9406440939402809194028F7C80935F
:102A60009402089547FD3FC082859385892B49F1E3
:102A70008285938501979387828780919502882329
:102A800009F442C0509A8D918CB99D01868197813D
:102A9000A817B90709F43FC0338322832285338501
:102AA000848595852817390701F1089581E18CB94E
:102AB0004F7B40939402809194028F7C8093940288
:102AC0000895559813861286A089B1891097F1F060
:102AD000FFEFAF3FBF0749F3FD0184819581019668
:102AE00095838483089555980895A089B189109796
:102AF00069F08FEFAF3FB807C1F2FD018481958186
:102B000001969583848308955098BDCF8FEF9FEFF2
:102B1000918B808B089524813581BECF1F93CF93F5
:102B2000DF93DC014BB180919302482B40939302D9
:102B30001CB150919402552321F0133151F1113100
:102B4000F1F1ED012A853B8588859985281739079C
:102B5000E0F4B9016F5F7F4F61307105A9F1552332
:102B6000E9F4ED91FC91119711931196FC93EE937A
:102B70002D913C911197FD01868197812817390786
:102B800091F1ED017B876A873DC0486040939302D5
:102B900039C0559850685093940234C0ED018E8529
:102BA0009F8568177907E8F256FDDBCF5D9B26C04D
:102BB00083E18CB950645F7D50939402D2CF559AD3
:102BC0005F77509394021EC0ED01E889F989309730
:102BD00081F08FEFEF3FF80721F284819581019614
:102BE00095838483BECF8481958111969C938E9327
:102BF000C8CF8FEF9FEF998B888BB3CF50625093E4
:102C00009402AFCFDF91CF911F9108950FB6F89442
:102C10000F9288EB8AB90F900FBE0895529912C097
:102C20008091950082FD07C08091950081FF10C0C2
:102C300086E090E008958091950081FF06C088E0CD
:102C400090E0089589E090E0089587E090E008958D
:102C500085E090E008958091950085FF0AC08091FD
:102C6000950084FF03C081E090E0089582E090E049
:102C7000089580E090E008958091950083FF03C05F
:102C800082E090E0089581E090E0089580919302C1
:102C9000682F7727CB01929582958F7089279F7037
:102CA00089279C014427552721703070407050704F
:102CB00063FD226062FD246080919402882321F0EC
:102CC00086FD18C087FD19C041FF416043FF446085
:102CD00080919502882339F0CA01B9018064589B1C
:102CE00007C080610895CA01B90180685899F9CF79
:102CF00080620895426087FFE7CF4860E5CFEF929A
:102D0000FF920F931F937B018C0180919402882383
:102D100089F00FB6F8940F9200FF39C08F7B809333
:102D2000940202FF3BC0809194028F7780939402BB
:102D30000F900FBE06FF03C081E08093950207FF4E
:102D400002C01092950204FD589A05FD5898E0FEC5
:102D500005C0809193028F7E80939302E1FE05C0AF
:102D600080919302877F80939302E2FE05C0809159
:102D700093028B7F809393020E944616687FE6162B
:102D8000F7060807190791F480E090E011C001FFF1
:102D9000C8CF80648093940202FDC5CF03FFC8CFE3
:102DA00080919402806880939402C2CF8FEF9FEF4E
:102DB0001F910F91FF90EF9008958091950086FFED
:102DC0000AC0129B0DC093E08091950080FD946035
:102DD000892F99270895599B05C080E290E00895B6
:102DE00091E0F2CF80E090E00895809194028823F2
:102DF00029F060E270E080E090E0089560E070E02B
:102E000080E090E00895EF92FF920F931F937B0173
:102E10008C0165FF0EC080919402882391F00E947E
:102E2000F516E616F70608071907A1F480E090E00A
:102E300013C00FB6F8940F92109294020F900FBE29
:102E4000EECF0FB6F8940F9281E4809394020F9026
:102E50000FBEE5CF8FEF9FEF1F910F91FF90EF9087
:102E60000895559A089590919402992399F096FFA8
:102E700011C00FB6F8940F925D9B0DC081E18CB923
:102E80009F7E90939402809194028F798093940214
:102E90000F900FBE0895906190939402F4CF0FB6F7
:102EA000F8940F925798569855980F900FBE8AE055
:102EB0000E94F4135498539808951F93182F0E945A
:102EC0004F17812F992780FF0DC081FF23C0129AD1
:102ED00082FF23C08091950081608093950059986E
:102EE0005E9A0DC085FF14C0599A809195008E7F1F
:102EF00080939500809195008F7B809395000E9430
:102F000006160E94DD16181771F480E090E00DC0DF
:102F10005998EBCF129882FDDDCF809195008E7F7E
:102F200080939500DCCF8FEF9FEF1F9108951F9343
:102F3000182F0E944F17113059F0123079F00E946B
:102F400006160E943C16181779F480E090E00EC037
:102F500080919500877F80939500F1CF80919500B7
:102F6000886080939500EBCF8FEF9FEF1F910895BE
:102F70001F93182F0E944F171130C1F0113058F0D5
:102F80001230F9F00E9406160E942B16181721F530
:102F900080E090E023C0809195008F7E8093950023
:102FA000809195008F7D80939500ECCF8091950066
:102FB0008061809395008091950080628093950058
:102FC000E1CF809195008F7E809395008091950050
:102FD000806280939500D6CF8FEF9FEF1F91089569
:102FE0001F93182F0E944F175298809195008D7F44
:102FF00080939500809195008B7F8093950017308A
:10300000B9F0183058F41630C9F00E9406160E9424
:103010000E161817C9F480E090E018C0183019F0A7
:10302000193099F7529A80919500826080939500AB
:1030300080919500846080939500E7CF8091950002
:10304000826080939500E1CF8FEF9FEF1F910895ED
:10305000EF92FF920F931F937B018C010E944F17F9
:103060008091950086FD17C059990DC0EE0CFF1C8C
:10307000001F111FEE0CFF1C001F111FEE0CFF1C88
:10308000001F111F08C0EE0CFF1C001F111FEE0CCB
:10309000FF1C001F111F0E940C14A80197010E9421
:1030A0006F4A2F5F3F4F4F4F5F4F5695479537956C
:1030B00027952150304029B9232F332720939000A2
:1030C0000E94061680E090E01F910F91FF90EF9014
:1030D00008958F929F92AF92BF92CF92DF92EF921C
:1030E000FF920F931F9389B090909000809195006C
:1030F00086FD0EC0599B06C018E0A12EB12CC12C34
:10310000D12C0BC0B0E1AB2EB12CC12CD12C05C001
:1031100002E0A02EB12CC12CD12C0E940C147B01FA
:103120008C01282D3327892D9927982F8827282B24
:10313000392B442755272F5F3F4F4F4F5F4FC60115
:10314000B5010E94304A9B01AC01C801B7010E9441
:103150006F4ACA01B9011F910F91FF90EF90DF9064
:10316000CF90BF90AF909F908F90089540E050E037
:1031700060E070E08BE392E00E94101E40E050E0BF
:1031800060E070E081E492E00E94101E80E090E038
:10319000089542EC51E06EE875E18BE392E00E9405
:1031A000101E892B19F08FEF9FEF089540EB51E02F
:1031B00069E175E181E492E00E94101E892B19F407
:1031C00080E090E0089540E050E060E070E08BE344
:1031D00092E00E94101E8FEF9FEF08959C01FB016B
:1031E0008AB1482F552740785070579820313105C3
:1031F000C1F02131310554F022313105C1F02231C5
:1032000031052CF580E090E0579A0895211531059D
:1032100089F02130310581F08FEF9FEF452BA1F729
:1032200008955F991EC011821082452B51F480E0F1
:1032300090E0089540E050E08CB18CB180E090E0E7
:10324000EDCF80819181806891838083DBCF2032B4
:10325000310511F780E190E09183808380E090E078
:10326000DDCF81E090E091838083DFCF1F920F92CA
:103270000FB60F9211242F933F934F935F936F9349
:103280007F938F939F93AF93BF93EF93FF938BE3C2
:1032900092E00E94021EFF91EF91BF91AF919F912A
:1032A0008F917F916F915F914F913F912F910F90EF
:1032B0000FBE0F901F9018959C01FB018AB1482FFB
:1032C00055274072507055982131310511F1223146
:1032D000310564F02231310501F12032310501F16F
:1032E0008FEF9FEF452BD9F0559A089521153105A1
:1032F000A1F020313105A1F75D9B19C081E090E07C
:1033000091838083452B49F08081918180689183EE
:10331000808380E090E0559A089580E090E00895E1
:1033200080E190E09183808380E090E0DBCF1182A8
:103330001082E8CF1F920F920FB60F9211242F9395
:103340003F934F935F936F937F938F939F93AF932D
:10335000BF93EF93FF9381E492E00E94021EFF91DE
:10336000EF91BF91AF919F918F917F916F915F91FD
:103370004F913F912F910F900FBE0F901F90189576
:1033800082E28093008390E003C09F5F953121F03B
:103390008091078386FFF9CF80E4809307830895A7
:1033A000FC016115710569F09B0121503040832FAC
:1033B0009927982F8191809310832150D8F79150AD
:1033C000C8F70895CF93DF93FC01C189D2898A851C
:1033D0009B85AC85BD850196A11DB11D8A879B8704
:1033E000AC87BD878091078380930783282F33277D
:1033F00024FD42C023FD7FC020FF11C08881998138
:10340000892B09F486C0888199818F5F9F4F39F09D
:10341000E881F9818481958101969583848322FFD7
:103420007DC020910D838A899B89AC89BD89820FDB
:10343000911DA11DB11D8A8B9B8BAC8BBD8B2091E7
:103440000E838E899F89A88DB98D820F911DA11D34
:10345000B11D8E8B9F8BA88FB98F20910F838A8D82
:103460009B8DAC8DBD8D820F911DA11DB11D8A8FCD
:103470009B8FAC8FBD8F52C08091008382FDFCCFAB
:103480008091008391E6909300832091078391E2DD
:103490009093008310920A8310920B8382FD24C0C4
:1034A00090E082E080930D8382E280930083822FFC
:1034B0008150863408F48FE58093038310920D8346
:1034C000992319F086E28093008380E1809307833B
:1034D0008E859F85A889B9890196A11DB11D8E870A
:1034E0009F87A88BB98B1AC08091078390E08A7060
:1034F000C1F691E0D6CF8AA19BA1ACA1BDA1019656
:10350000A11DB11D8AA39BA3ACA3BDA320FF87CFA0
:1035100075CF8FEF9FEF9983888381CFDF91CF9114
:1035200008950F931F93CF93DF93EC0100E0109168
:103530001F8385E00E94F41310931F8310E004C0E2
:103540001F5F143109F470C082E30E94F41380916C
:10355000078387FFF5CF80910A83803589F78091B3
:103560000B83803769F710920F830FEF0093078367
:1035700081EE8093008380EC8093018310E21093AE
:10358000058310930683109201838FEF0E94F4133A
:1035900081E28093008388E480930E8310920A83F3
:1035A00010920B8310930C8382E080930D8380E450
:1035B000809304838FE58093038386E48093018363
:1035C00080E6809302830093078381E680930083E3
:1035D000A1E0B3E8FE019E012A5F3F4F81918D93E8
:1035E000E217F307D9F7E8E0F3E8119283E8E03156
:1035F000F807D9F786E48093078381E280930083FC
:1036000084E080930C838FEF809307838DE1809318
:103610000F8382E28093008310920D838FEF0E94CC
:10362000F41380E090E006C00F5F043109F07FCF13
:103630008FEF9FEFDF91CF911F910F910895EF9240
:10364000FF920F931F93CF93DF93EC018091590367
:10365000882309F444C00F85188978010894E11C77
:10366000F11CF701A3E6B3E086E00D9001928150D2
:10367000E1F7E989FA8986E211928A95E9F720E073
:1036800033E0AE0163E17CE187E492E00E945913EC
:1036900064EF71E080E090E00E94C410AE0162EE41
:1036A00079E18CE492E00E94101E892BA9F489B77D
:1036B0008F7D89BFF80181819281892B9381892B2C
:1036C00031F489B7806289BF80E090E00DC0C70106
:1036D0000E94911A892BA9F38FEF9FEF05C0CE01AD
:1036E00002960E945631B7CFDF91CF911F910F9173
:1036F000FF90EF900895BF92CF92DF92EF92FF92EA
:103700000F931F93CF93DF938B01FC01C188D28865
:10371000FB01C581D68181859285C80FD91F85851A
:10372000968521893289820F931FC80FD91FF5E032
:10373000CB3EDF0708F06BC0CC33D10508F461C085
:10374000FF2402C00E947E0E8091008382FDFACF8A
:1037500089B78F7D89BFBC2EC0930A838D2F99278F
:10376000E82E80930B831092088380E48093098372
:1037700082E180930083F801658176818381948161
:103780000E94D019F80161857285878190850E9419
:10379000D019F80165857685838594850E94D019B6
:1037A000F80161897289878590890E94D019FF206C
:1037B00051F080E090E02F2D332710921083019676
:1037C00028173907D1F70E94C019B0920583E092FB
:1037D000068380E48093048386E28093008389B724
:1037E000806289BFF60186819781A085B1850196A7
:1037F000A11DB11D86839783A087B18780E090E0EB
:1038000008C02CE3F22EFC1ACCE3D0E09DCF8FEF62
:103810009FEFDF91CF911F910F91FF90EF90DF907D
:10382000CF90BF900895CF93DF93CDB7DEB72497A5
:103830000FB6F894DEBF0FBECDBF1C01FC0147845C
:103840005088A188B28889E00E94F60DF20181813A
:1038500092818923938189238F3F09F4FAC0320131
:103860000894611C711C40E050E060E070E0C5010C
:103870000E94111289B78F7D89BF82E680930083F1
:103880000000000000000000000000000000000038
:103890000000000000000000000000000000000028
:1038A0009091078382E280930083109103831F5FCE
:1038B000103608F016E4191709F484C084E08093E8
:1038C0000A8310920B8310920883109309838AE075
:1038D0008093008300000000000000000000000052
:1038E00000000000000000000000000000000000D8
:1038F00000000000FE0131969E012B5F3F4F80913A
:10390000108381932E173F07D1F70E94C019EB80D7
:10391000FC808F2D992720E0E11021E0820F810F9C
:10392000803608F08A510A818017D1F0982F9F5F66
:10393000903608F09A51901799F089B7806289BF44
:10394000C3010E94911AF501868D978DA0A1B1A1A6
:103950000196A11DB11D868F978FA0A3B1A38ACF19
:10396000C701805490408F5A954018F489818E7019
:1039700069F1CC24DD24802F8150863408F48FE552
:103980008093038389B7806289BFFFEFCF16FFEF73
:10399000DF06B1F2C114D10409F465CFF5018281CB
:1039A0009381A481B5810196A11DB11D828393836A
:1039B000A483B583F201218D328DB601C101F901D5
:1039C000099558CF89B7806289BF4DCF6CEF862E9D
:1039D0006FEF962E8E0C9F1CA40160E180E090E0BA
:1039E0000E945B246C01892B31F280920A83892D1D
:1039F000992780930B8384E0809308831093098335
:103A00008AE08093008300000000000000000000B6
:103A100000000000000000000000000000000000A6
:103A2000000000000000F60183819481892871F074
:103A3000FC01970125503040832F9927982F8091C2
:103A4000108381932150D8F79150C8F70E94C01974
:103A500092CF6DE770E080E090E00E94C410F20128
:103A6000818192818923938189238F3F91F389B743
:103A70008F7D89BF32010894611C711CC3010E94B3
:103A8000911A89B7806289BFEECE9C01FB0189B78C
:103A9000482F55274072507089B78F7D89BF2131DB
:103AA0003105D9F122313105ACF02831310509F465
:103AB00040C029313105BCF12931310509F44DC02F
:103AC0002032310599F585E090E09183808320E0F4
:103AD00030E012C02130310559F02031310579F044
:103AE000232B21F58AB78B7F8ABF8AB7877F8ABF4E
:103AF00080E288BF20E030E0452B89F45BC008B647
:103B000005FE28C081E090E091838083452BF9F089
:103B10008081918180689183808320E030E089B743
:103B2000806289BF47C02231310589F02FEF3FEF16
:103B3000E3CF8AB7982F987083FDC5CF943021F1D9
:103B400081E090E09183808320E030E0D5CF20E0D9
:103B500030E030C011821082D9CF60817181613034
:103B60007105C9F067307105F9F065307105F9F03C
:103B700066307105D9F68AB784608ABF8AB78860D3
:103B80008ABF20E030E0B8CF87E090E09183808367
:103B900020E030E0B1CF8AB78B7F8ABF8AB7877FBA
:103BA0008ABF20E030E0A8CF8AB78460F6CF8AB71A
:103BB0008B7FE3CFC90108951F920F920FB60F922A
:103BC00011242F933F934F935F936F937F938F9322
:103BD0009F93AF93BF93EF93FF938CE492E00E9487
:103BE000021EFF91EF91BF91AF919F918F917F91B5
:103BF0006F915F914F913F912F910F900FBE0F905A
:103C00001F901895CF93DF93DC01EC01EA81FB81D3
:103C1000309719F08D919C910995DF91CF9108957E
:103C2000EF92FF920F931F93CF93DF93EC017B01F1
:103C30008A01EC81FD81309731F060E070E080E036
:103C400090E0099502C080E090E019830883FB8230
:103C5000EA82DF91CF911F910F91FF90EF9008952D
:103C6000CF93DF93EC01EC81FD81309731F060E080
:103C700070E081E190E0099502C08FEF9FEFDF9146
:103C8000CF910895CF93DF93EC01EC81FD813097C4
:103C900031F060E070E082E190E0099502C08FEFC2
:103CA0009FEFDF91CF9108950F931F93CF93DF93F1
:103CB000CDB7DEB724970FB6F894DEBF0FBECDBFE9
:103CC0008C017C836B83FC012481358121153105B6
:103CD000C1F0BE016F5F7F4F80E290E0F90109956E
:103CE000009789F4F80124813581BE016D5F7F4F13
:103CF00081E290E0F9010995009729F489819A8180
:103D000002C08FEF9FEF24960FB6F894DEBF0FBE70
:103D1000CDBFDF91CF911F910F9108950F931F9306
:103D2000CF93DF93CDB7DEB724970FB6F894DEBFFD
:103D30000FBECDBF8C017C836B83FC012481358158
:103D400021153105C1F0BE016F5F7F4F88E190E022
:103D5000F9010995009789F4F80124813581BE01A4
:103D60006D5F7F4F89E190E0F9010995009729F493
:103D700089819A8102C08FEF9FEF24960FB6F89445
:103D8000DEBF0FBECDBFDF91CF911F910F91089580
:103D90000F931F93CF93DF93FC01C189D289EDA9C3
:103DA000FEA909958C01892B49F4CF5BDF4FE8818F
:103DB000F98160E072EC81E090E00995C801DF9143
:103DC000CF911F910F910895CF93DF93EC01EA817A
:103DD000FB810188F289E02D0FB6F8940F9264A55B
:103DE00075A50F900FBE88279927DF91CF91089571
:103DF000CF92DF92EF92FF920F931F93CF93DF93B7
:103E0000EC018B017A0169018C819D8128853985BE
:103E10000FB6F8940F92198618860F900FBE2617CA
:103E2000370769F0232B31F40115110521F580E0E6
:103E300090E028C00097C1F30E945A49F5CF672B44
:103E4000B1F39D838C83998388839B838A83800FBE
:103E5000911F9F838E83FD86EC86DF86CE861B8630
:103E60001A860FB6F8940F92198708870F900FBE25
:103E700080E090E007C0C8010E945D49009709F703
:103E80008FEF9FEFDF91CF911F910F91FF90EF90F8
:103E9000DF90CF900895AF92BF92CF92DF92EF92D2
:103EA000FF920F931F93CF93DF93FB015A01DA0127
:103EB000ED90FD900D911C912E2DEC01C988DA88B2
:103EC000E150F140E732F10540F4EA5BFF4FEE0FBD
:103ED000FF1F0590F491E02D0994CFEFDFEFE7C1CC
:103EE000E1E4F0E0CE0EDF1ED601ED91FC91C801B9
:103EF000B7010995EC01DBC1C3E4D0E0CC0EDD1EB7
:103F0000D601ED91FC910995E501688379838A8357
:103F10009B83C0E0D0E0CBC1E5E4F0E0CE0EDF1E35
:103F2000D601ED91FC91822F0995EC01C0C1C7E447
:103F3000D0E0CC0EDD1ED601ED91FC9109959927BC
:103F4000AA27BB27E50188839983AA83BB83C0E0A6
:103F5000D0E0ADC1E9E4F0E0E1CFCBE4D0E0E9CFDF
:103F6000EDE4F0E0DBCFCFE4D0E0E3CFE6FC8AC1C4
:103F7000C0E0D0E0E7FE0FC0209709F098C1F6013D
:103F80007096268537854485558560857185CF0176
:103F90000E94F81EEC01209709F089C181E590E0AC
:103FA000C80ED91E8FE39FEFAFEFBFEFE822F922D3
:103FB0000A231B2399CFC3E5D0E0CC0EDD1ED6012A
:103FC000ED91FC91CDEADFEFCC0EDD1E09959B0152
:103FD000AC01F5016083718382839383E6018CA534
:103FE0009DA5892B29F42064208331834283538348
:103FF000E6018A8D9B8D892B09F025C1F501808111
:104000009181A281B3818068E50188839983AA8325
:10401000BB83C0E0D0E04BC1F601E086F1860287A9
:104020001387C0E0D0E043C1EE2009F41DC1F601C2
:1040300080819181A281B3818064E6018883998324
:10404000AA83BB83C0E0D0E032C1F60180819181B8
:10405000A281B38186FD4CC0F501108211821282CB
:104060001382C0E0D0E023C1E601EC86FD860E8716
:104070001F87C0E0D0E01BC1E601EDADFEADC80179
:10408000B7010995EC0113C1EFE3F0E0CE0EDF1E9E
:1040900037CFE60188859985AA85BB85FA0180839B
:1040A0009183A283B383C0E0D0E001C1F60184858F
:1040B0009585A685B785EA0188839983AA83BB8302
:1040C000C0E0D0E0F4C0EE2009F4C0C0F601808169
:1040D0009181A281B3818068E60188839983AA8354
:1040E000BB83C0E0D0E0E3C0F601808187FFB4CF9E
:1040F00081E090E0A0E0B0E0E50188839983AA83A5
:10410000BB83C0E0D0E0D3C085E590E0C80ED91EE7
:1041100007CFC7E5D0E00DCFF6017096268537852D
:1041200044855585B701CF010E94F81EEC01892B0B
:1041300009F0BDC0F60183AD94ADFC010995B7C08F
:10414000E601888D998DAA27BB27FA018083918388
:10415000A283B383C0E0D0E0AAC0F601B296268560
:10416000378544855585B701CF010E94F81EEC01C3
:104170009EC0E6018AA59BA5AA27BB27FA018083DA
:104180009183A283B383C0E0D0E091C00FB6F894CE
:104190000F92E601FD8EEC8E0F900FBEC0E0D0E0D6
:1041A00086C0F601848D958DAA27BB27EA018883F6
:1041B0009983AA83BB83C0E0D0E079C00FB6F8949E
:1041C0000F92F601F78EE68E0F900FBEC0E0D0E0A2
:1041D0006EC0E6018E8D9F8DAA27BB27FA018083D2
:1041E0009183A283B383C0E0D0E061C00FB6F8949E
:1041F0000F92E601FFA6EEA60F900FBEC0E0D0E042
:1042000056C0F60186A597A5AA27BB27EA01888391
:104210009983AA83BB83C0E0D0E049C00FB6F8946D
:104220000F92F601F1AAE0AA0F900FBEC0E0D0E015
:104230003EC0E60188A999A9AA27BB27FA01808375
:104240009183A283B383C0E0D0E031C0F6018081C6
:104250009181A281B3818F77E60188839983AA83B4
:10426000BB83C0E0D0E023C0F60180819181A281B0
:10427000B3818F7BE60188839983AA83BB83C0E0E7
:10428000D0E015C0F601B296268537854485558560
:1042900060857185CF010E94F81EEC01892B09F021
:1042A00069CEF60183AD94ADFC01099563CECE01D4
:1042B000DF91CF911F910F91FF90EF90DF90CF9002
:1042C000BF90AF900895CF92DF92EF92FF920F933D
:1042D0001F93CF93DF936C018A01FC01C189D289BE
:1042E00083E0E82EF12CE422F522E114F10491F5AB
:1042F00020EF30E040ED50E060E071E0CE018296CA
:104300000E94F81E892B09F042C086E090E00E94CE
:104310005D499C01892B81F10070107C0050104890
:10432000E9F188819981AA81BB818068888399831A
:10433000AA83BB838901F90111821082D382C282D0
:1043400015821482F1E0EF16F10491F1EBADFCADB2
:1043500009952EC028E330E048E250E060E470E0C8
:10436000CE0140960E94F81E892B71F4F1E0EF1601
:10437000F10409F0BDCFC9CF8C899D890E945A49AB
:104380008EA19FA10E945A490FEF1FEF11C08C8987
:104390009D890E945A490FEF1FEF0AC088819981B9
:1043A000AA81BB818F7788839983AA83BB83C2CF7D
:1043B000C801DF91CF911F910F91FF90EF90DF9097
:1043C000CF900895CF93DF93DC01EC01EA81FB816C
:1043D000C189D28901978E5F9F4F18F08FEF9FEFB1
:1043E00019C0CD010E945A4920E030E040E050E081
:1043F00060E070E0CE0140960E94F81E20E030E0C0
:1044000040E050E060E070E0CE0182960E94F81E2D
:1044100080E090E0DF91CF910895AF92BF92CF926C
:10442000DF92EF92FF920F931F93CF93DF938C0154
:104430005A0120E1E22EF12CE80EF91E0FB6F89495
:104440000F92F70182859385860F971F9387828746
:10445000C285D3850F900FBE4C175D0700F590E124
:10446000C92ED12CCE0CDF1C0BC00FB6F8940F92C6
:10447000F701C285D3850F900FBEAC16BD0678F448
:10448000F80181AD92ADFC010995F801448555858F
:1044900066857785C6010E941112892B31F3CE0102
:1044A000DF91CF911F910F91FF90EF90DF90CF9010
:1044B000BF90AF9008954F925F926F927F928F92CC
:1044C0009F92AF92BF92CF92DF92EF92FF920F93A3
:1044D0001F93CF93DF93CDB7DEB722970FB6F89433
:1044E000DEBF0FBECDBF5A014901FC016188728851
:1044F000B0E14B2E512C460C571CF2018085918562
:10450000892B09F49DC06115710509F4A2C0D3017E
:104510002D913D914D915C910FB6F8940F92F2015F
:10452000C284D3840F900FBE1A141B040CF09AC0DF
:10453000DA01C901F9E0B695A79597958795FA959F
:10454000D1F781708A83E7E056954795379527958F
:10455000EA95D1F7217029838B0160E070E0EE24A9
:10456000FF2421C0F8018491B981B13079F199819A
:10457000923009F446C00F5F1F4F0894E11CF11CF4
:10458000D201ED91FC91119781931196FC93EE93DA
:104590002D913C91F2018681978128173907A1F16D
:1045A000EA14FB04C4F59601260F371FF201868535
:1045B000978528173907A0F46F5F7F4F8114910406
:1045C00089F6D8018C91B981B13089F68A3099F693
:1045D000EA81E13009F438C0F2E0F9838DE0D0CF10
:1045E000F20144855585C3010E940D226C01F20140
:1045F000848595858C159D0508F436C061E070E0D2
:10460000DDCFA1E0A983B7CF848195819183808399
:10461000EA14FB0444F26115710531F10FB6F89408
:104620000F92F20182859385680F791F73876287E5
:104630000F900FBEF30181AD92ADFC01099514C03E
:10464000AFEFEA2EFA2E10C082E08A8389838DE0D4
:1046500097CF40E050E060E070E0C3010E940D227F
:104660007C0102C0EE24FF24C70122960FB6F89405
:10467000DEBF0FBECDBFDF91CF911F910F91FF9095
:10468000EF90DF90CF90BF90AF909F908F907F90F2
:104690006F905F904F90089521E030E0FC0182819F
:1046A00093810E945B22089520E030E0FC0182812A
:1046B00093810E945B220895AF92BF92CF92DF92C6
:1046C000EF92FF920F931F93CF93DF937B015A01D9
:1046D000EC01EA81FB8101891289E801A2966885D3
:1046E00079856115710509F1E114F10409F492C0AD
:1046F0000FB6F8940F924A855B850F900FBE411557
:104700005105B1F4F80183AD94ADFC010995F801B0
:104710004085518562857385CE0140960E941112B5
:10472000892B31F380E090E090C08FEF9FEF8DC038
:10473000D701F801808187FF4DC0CC24DD24EE2411
:10474000FF247AE00BC06A30F1F0F80114AA6D93EF
:104750000894C11CD11C0894E11CF11CCA14DB0490
:1047600008F066C0E416F50609F1EA81FB81619163
:10477000FB83EA832A813B818E819F812817390739
:1047800079F06D3001F7F80184A9882311F06817DA
:1047900011F7F80164AB7D930894C11CD11CDBCFE9
:1047A0008C819D819B838A83ECCF76010FB6F89430
:1047B0000F928A859B858E199F099B878A870F9008
:1047C0000FBE2A853B858C859D8528173907C0F14A
:1047D000C6013BC06A01A416B50680F1C114D1041C
:1047E000B9F3AD014C0D5D1D03C0A417B507E9F287
:1047F000EA81FB8181918D93FB83EA832A813B814E
:104800008E819F812817390781F78C819D819B8339
:104810008A83EBCF2E853F854C855D85CE010E9436
:10482000F81EE801EBADFCAD099580E090E00DC00D
:10483000E114F10409F0BACFC60107C06501CECF7B
:10484000E801EBADFCAD0995C601DF91CF911F9159
:104850000F91FF90EF90DF90CF90BF90AF900895B1
:104860000F931F938C01FC01808191810E94610C48
:10487000F80111821082138212821F910F91089504
:104880000F931F93CF93DF93EC018B01CB010E9419
:10489000E30B99838883892B29F01B830A8380E0AB
:1048A00090E004C01B821A828FEF9FEFDF91CF91BF
:1048B0001F910F910895BF92CF92DF92EF92FF92D6
:1048C0000F931F93CF93DF937C01B62EEA01892BC0
:1048D00009F469C0BB2009F4D5C0209799F4F70109
:1048E00002810B21C02FDD27C4FD58C0C5FD51C07A
:1048F000C6FD4AC007FDB3C00095F7018281802341
:104900008283C0C0CB2CDD24C4FE1AC0F7012281F3
:1049100024FF69C0858196818C179D0720F0F701DF
:10492000D683C5830FC087010D5F1F4FC8010E944A
:104930003024BE01C8010E944024892B09F05BC0CD
:10494000F7012281C5FE0CC025FF5BC0F701818500
:1049500092858C179D0708F468C0F701D287C1873C
:10496000C6FE0CC026FF57C0F701858596858C17BB
:104970009D0708F467C0F701D687C587B7FC1CC040
:104980002B29F70122837EC0C7010B960E94302499
:10499000B1CFC70107960E943024AACFC701039662
:1049A0000E943024A3CF83E190E00E94E30C7C01BD
:1049B000892B09F08FCF66C027FD0AC0BE01C70151
:1049C0000F960E944024892BB1F4F7012281D8CFA1
:1049D000F701818992898C179D0708F445C0F7017A
:1049E000D28BC18BCDCFBE01C70103960E9440245C
:1049F000892B09F4A5CFC7010E944D25EE24FF2481
:104A000041C0BE01C70107960E944024892B99F737
:104A1000F7012281A5CFBE01C7010B960E94402459
:104A2000892B49F7F7012281A9CF8701095F1F4F21
:104A3000C8010E943024BE01C8010E944024892B75
:104A400039F3D9CF8701055F1F4FC8010E94302479
:104A5000BE01C8010E944024892B21F3CCCFC7019D
:104A60000F960E94302448CF8701015F1F4FC80175
:104A70000E943024BE01C8010E944024892B09F401
:104A8000A4CFB9CFC701DF91CF911F910F91FF90B4
:104A9000EF90DF90CF90BF900895CF93DF93EC011C
:104AA000009751F040E050E06A810E945B24CE0103
:104AB0000E94610C892B19F480E090E002C08FEF16
:104AC0009FEFDF91CF910895EF92FF920F931F9385
:104AD000CF93DF938C0183E190E00E94E30CEC0123
:104AE000009709F476C07C01F80165817681611533
:104AF000710541F5F8016185728561157105D1F582
:104B0000F801658576856115710509F04CC0F801DD
:104B1000618972896115710509F462C0CE010F9631
:104B20000E944024892B09F051C0F80167857089E3
:104B3000418952898F8598890E94164A8A818068A6
:104B40008A834EC003960E944024892B09F044C0FA
:104B5000F80163817481458156818B819C810E941B
:104B6000164A8A8180618A83F801618572856115A0
:104B7000710531F2CE0107960E944024892B31F550
:104B8000F80167817085418552858F8198850E94E3
:104B9000164A8A8180628A83F80165857685611567
:104BA000710509F4B4CFCE010B960E944024892BE5
:104BB00069F4F80163857485458556858B859C85E8
:104BC0000E94164A8A8180648A83A1CFCE010E9406
:104BD0004D25EE24FF2404C0CE010E944D25F9CFBF
:104BE000C701DF91CF911F910F91FF90EF90089532
:104BF0000E94FE2508950E941D260895CF93DF93FD
:104C000041155105A9F09C01E0E0F0E0EB01D9016C
:104C10000E94914A802D9991981721F0D901092E6F
:104C20000E94994A31962F5F3F4F4E175F0779F7E1
:104C300080E090E0DF91CF910895CF93DF93EA0178
:104C4000DC01FB01219724F00E94914A0192FACFE6
:104C500080E090E0DF91CF9108950F931F93CF9361
:104C6000DF938C01C091BC02D091BD02209789F1E5
:104C7000FE0105C00190F081E02D309711F1808D8B
:104C8000918D08171907B1F7828D938DA48DB58D7D
:104C900082179307A407B50769F7868D978D861746
:104CA000970741F78389882329F3CF0116C0888DA0
:104CB000998D8017910781F00990D881C02D209798
:104CC00041F08B89813099F30990D881C02D2097CC
:104CD000C1F780E090E001C0CE01DF91CF911F913C
:104CE0000F910895CF93DF93FC01EA01892BB1F076
:104CF00080E16230780759F180E1633078078CF009
:104D000080E16530780709F442C06650704169F16E
:104D1000E05AFF4F8AE397E2918380838FEF9FEF02
:104D20005DC06230710509F444C06150704181F783
:104D3000452B21F02230310509F44AC0E05AFF4FDB
:104D400086E190E0918380838FEF9FEF47C0452BF2
:104D5000A9F32230310591F7E85BFF4F8081918103
:104D60009983888380E090E039C0452B39F3243063
:104D7000310521F7EA59FF4F80819181A281B381EA
:104D800088839983AA83BB8380E090E027C0452B6A
:104D9000A9F22430310591F6E659FF4F80819181C7
:104DA000A281B38188839983AA83BB8380E090E04A
:104DB00015C0452B19F22230310509F0BFCFEE5A4C
:104DC000FF4F808191819983888380E090E006C0C5
:104DD000818992899983888380E090E0DF91CF91E7
:104DE0000895FC01892B29F0E05AFF4F80819181C1
:104DF000089586E397E20895CF93DF93DC01EA01FB
:104E00006A30710561F06A3071051CF48FEF9FEF15
:104E100025C06B307105B9F06C307105B9F7FD0133
:104E2000E65BFF4FAA5BBF4F8D919C912081318142
:104E3000821B930BAA27BB2788839983AA83BB83F2
:104E400080E090E00BC0FC0185859685AA27BB27F2
:104E500088839983AA83BB8380E090E0DF91CF9120
:104E600008950F931F93CF93DF938C01EC01C45BE4
:104E7000DF4FE881F981309759F0808191819983E2
:104E80008883CF010E944D25E881F9813097A9F7E9
:104E9000E801E8ADF9AD309761F080819181E801DA
:104EA00099AF88AFCF010E944D25E8ADF9AD30979D
:104EB000A1F7E801C05BDF4FE881F981309759F035
:104EC0008081918199838883CF010E944D25E8815B
:104ED000F9813097A9F7DF91CF911F910F91089534
:104EE0002F923F924F925F926F927F928F929F92FA
:104EF000AF92BF92CF92DF92EF92FF920F931F93E8
:104F0000CF93DF93CDB7DEB726970FB6F894DEBF09
:104F10000FBECDBF6C011B012A010E947E0EC11481
:104F2000D10409F447C0F6018389843021F08389D4
:104F3000853009F0B4C02114310481F141145104C9
:104F400069F196E4692E712C6C0C7D1CF601E65B10
:104F5000FF4FFA83E98386E6E82EF12CEC0CFD1C6A
:104F60008601025B1F4FF30180819181A981BA8183
:104F70000D90BC91A02DBE83AD838A179B07E9F4E9
:104F8000F6018389843069F4D7014D915D916D916B
:104F90007C91C8010E941112892B29F340E050E056
:104FA000BDC0E0E6F0E0CE0EDF1E89E497E2D60158
:104FB0008D939C934FEF5FEFB1C08A1B9B0B8415C1
:104FC000950520F4009709F474C02C01AA24BB2491
:104FD000C601845B9F4F9C838B832EC0678570893D
:104FE000620F731FA701C1018A0D9B1D0E94164A03
:104FF000AE0CBF1C6D817E816E0D7F1D7E836D8327
:10500000E016F106B0F0D4018D919C91EB81FC810A
:1050100091838083D3018D919C911197ED81FE81C5
:105020008E1B9F0B8D939C93C4010E944D251E8265
:105030001D82A414B50438F5EB81FC818080918039
:10504000F401018912892D813E81021B130B72012B
:10505000EA18FB080E151F0508F6F401678570892C
:105060002D813E81620F731FA801C501820D931D22
:105070000E94164AA00EB11E6D817E81600F711FC5
:105080007E836D83C0CFED81FE81A981BA81ED93CE
:10509000FC93F6018389843081F0A2013FC020E6B1
:1050A00030E0C20ED31E89E497E2D6018D939C9323
:1050B00081CF44245524A20131C0EC5BFF4F4081D5
:1050C000518128E430E0C20ED31ED6012D913C91CF
:1050D00068EB7FEFC60ED71ECA01840D951D2817F9
:1050E000390708F4C901A2E5B0E0CA0EDB1ED601FB
:1050F0002D913C916EEA7FEFC60ED71E241735071F
:1051000018F02817390720F091838083A20106C088
:1051100091838083C6010E949534A201CA0126961C
:105120000FB6F894DEBF0FBECDBFDF91CF911F91B8
:105130000F91FF90EF90DF90CF90BF90AF909F9036
:105140008F907F906F905F904F903F902F90089539
:105150000E9470270895CF92DF92EF92FF920F93F3
:105160001F93CF93DF93EC016B018A010E947E0EA7
:10517000209709F447C0C114D104B9F101151105F4
:10518000A1F172E5E72EF12CEC0EFD1EF7018081F6
:1051900091818017910760F18B89843069F549A569
:1051A0005AA58DA19EA1481B590B9A0136952795AA
:1051B00036952795F701808191812817390738F4B2
:1051C0008DA99EA9841B950B80179107F0F4C659F1
:1051D000DF4F488159816A817B81CA56D040CE0118
:1051E000CA960E941112892BB9F240E050E018C013
:1051F0008C018B89843099F2C05ADF4F89E497E2A1
:10520000998388834FEF5FEF0BC088A1806188A3EB
:10521000A801B601CE010E942232892B99F7A8017C
:10522000CA01DF91CF911F910F91FF90EF90DF9016
:10523000CF900895CF92DF92EF92FF920F931F933A
:10524000CF93DF936C017B018A0114161506BCF421
:10525000C0E0D0E005C0C80FD91FC017D1078CF43B
:10526000A8014C1B5D0BB7016C0F7D1FC6010E948E
:10527000AB28181619067CF3CFEFDFEF02C0C0E0B1
:10528000D0E0CE01DF91CF911F910F91FF90EF9071
:10529000DF90CF900895AF92BF92CF92DF92EF92BE
:1052A000FF920F931F93CF93DF93EC017B018A0151
:1052B000892B09F492C08B89843009F091C0411583
:1052C0005105E1F05B012D853E8521153105E9F49D
:1052D00069897A894617570708F05BC06A01CB01D4
:1052E0000E94E30B988B8F87009709F476C0A60184
:1052F000B5010E94164ADE86CD8699C04D855E8531
:105300004115510509F493C05AC049895A89C90108
:10531000800F911F8417950770F16A01C21AD30A92
:105320008F859889A601820F931F0E94164A49898A
:105330005A896F857889CE010E941A2999230CF425
:105340006EC05701AC0CBD1C98012C193D09698930
:105350007A892617370708F051C07901E114F10462
:1053600009F447C0A701B5018F8598890E94164AA4
:10537000FE86ED865CC08F859889A801820F931FF9
:105380000E94164A8D859E85800F911F9E878D876E
:105390004EC0CA010E945B4A6C015801A81AB90AA2
:1053A000A501B701CE010E941A2997FD16C0C114AC
:1053B000D104E9F1AE0CBF1C69897A8990CF6F8561
:1053C0007889CE010E941A2999234CF18F859889FA
:1053D0000E94610C1E861D862AC00FEF1FEF27C09A
:1053E000C05ADF4F89E497E2998388830FEF1FEF5C
:1053F0001EC08F8598890E94610CBACFC8010E9497
:105400005B4A7C016901C81AD90AA601B501CE011F
:105410000E941A2997FD03C0AC0CBD1C9FCF8F853D
:1054200098890E94610C1E861D860FEF1FEFC80130
:10543000DF91CF911F910F91FF90EF90DF90CF9070
:10544000BF90AF900895CF92DF92EF92FF920F93AB
:105450001F93CF93DF936C017B01EA014115510546
:10546000A1F0CA010E94E30B8C01009771F0AE011C
:10547000B7010E940D4AAE01B801C6010E944B2936
:10548000EC01C8010E94610C07C0AE0160E070E051
:10549000C6010E944B29EC01CE01DF91CF911F91F3
:1054A0000F91FF90EF90DF90CF9008950F931F938F
:1054B0008C0140E050E060E070E00E944B29C801A0
:1054C0000E94E83C1F910F9108950F931F93CF9373
:1054D000DF93EC018A01892BB1F080E1623078071B
:1054E00059F1E0E163307E078CF080E165307807A8
:1054F00009F449C06650704191F1C05ADF4F8AE308
:1055000097E2998388838FEF9FEF7DC062307105AA
:1055100009F44DC06150704181F7452B21F02230D4
:10552000310509F459C0C05ADF4F86E190E09983F4
:1055300088838FEF9FEF67C041155105A1F322309B
:10554000310589F7FA0180819181C85BDF4F99832A
:10555000888324979983888380E090E054C0411524
:10556000510509F324303105F1F6CA59DF4FFA012C
:1055700080819181A281B38188839983AA83BB832F
:1055800080E090E040C04115510569F224303105BA
:1055900051F6C659DF4FFA0180819181A281B38112
:1055A00088839983AA83BB8380E090E02CC0411557
:1055B000510509F4B8CF2230310509F0B4CF8B89F9
:1055C0008823C9F4CE5ADF4FFA01808191819983F3
:1055D000888380E090E017C040E050E060E070E039
:1055E000CE010E944B29F801808191819A8B898B91
:1055F00080E090E008C0C05ADF4F88E497E29983CA
:1056000088838FEF9FEFDF91CF911F910F910895C6
:10561000CF93DF938091BE02882359F40E94133404
:1056200020E0892B09F450C02093BE02222309F404
:1056300051C082E790E00E94E30C009709F44AC051
:10564000EC011B8A84E08C8388EA98E29E838D8338
:105650008BE499E298878F8383E29AE29A8789871D
:105660008CEF96E29C878B870E94FF0E69A37AA33A
:105670008BA39CA36DA37EA38FA398A769A77AA7EA
:105680008BA79CA7CC5BDF4F80E99CE09983888344
:105690002496998388832A9628E132E039832883E7
:1056A000269688EE93E099838883C855D0408091F0
:1056B000BC029091BD02998388833A8B298BD09349
:1056C000BD02C093BC0208C021E02093BE02222389
:1056D00009F0AFCFC0E0D0E0CE01DF91CF910895C7
:1056E000CF93DF93EC01E091BC02F091BD023097C3
:1056F00079F1E817F90729F424C0C817D90731F060
:10570000FC01808191810097C1F722C08881998135
:1057100091838083CE010E9431278D859E85892BC0
:1057200049F482E7FE0111928A95E9F7CE010E94C1
:10573000610C0EC08F8598890E94610C1E861D86A3
:10574000F0CF888199819093BD028093BC02E2CF13
:10575000DF91CF910895FC01062E672F702D718F78
:10576000608F0E94F2350895CF92DF92EF92FF9200
:105770000F931F93CF93DF936C017A018B01A901E3
:10578000009709F47AC0EC018B89813009F484C058
:10579000F6018389882309F073C0E091BC02F0917F
:1057A000BD0260E070E18091520290915302019637
:1057B000909353028093520280915202909153022F
:1057C000892B21F47093530260935202309701F1B8
:1057D0008091520290915302082E892F902D208D96
:1057E000318D82179307F9F2DF010D90BC91A02D46
:1057F000109771F08091520290915302082E892FD8
:10580000902DED01288D398D2817390761F2EDCFE4
:105810008091520290915302082E892F902DF6010B
:10582000918F808F042E452F502DE6015F8F4E8F74
:10583000E28EF38E048F158F40E050E0C801B7016F
:105840000E94B72CFC01892B79F00784F089E02DA8
:1058500087819085A185B2858C8B9D8BAE8BBF8B0C
:10586000C6010E94D43523C0E0E6F0E0CE0EDF1E74
:1058700081E597E2E601998388838FEF9FEF17C058
:1058800080E690E0C80ED91E88E497E2E60199838D
:1058900088838FEF9FEF0BC0E0E6F0E0CE0EDF1EB7
:1058A0008DE397E2E601998388838FEF9FEFDF9185
:1058B000CF911F910F91FF90EF90DF90CF900895BF
:1058C000CF92DF92EF92FF920F931F93CF93DF93CC
:1058D0007B018C016A01622F2430A8F5C091570327
:1058E000D0915803FE01209731F437C00190F08128
:1058F000E02D309791F186819781A085B1858E2129
:105900009F21A023B12322813381448155818217B5
:105910009307A407B50751F7C114D10449F02285B4
:10592000338544855585211531054105510571F4AF
:1059300086859785892B89F46F5FE284F3840485DB
:105940001585643079F6E0E0F0E007C0D6012D93CC
:105950003D934D935C931397EBCFCF01DF91CF91A4
:105960001F910F91FF90EF90DF90CF900895FA0173
:10597000452B21F010821182128213826F3F2FEF8C
:1059800072072FEF82072FEF920751F020E0AF014F
:105990000E94602CFC01309749F086859785089518
:1059A000E0915703F09158033097B9F780E090E009
:1059B00008954F925F926F927F928F929F92AF92D3
:1059C000BF92CF92DF92EF92FF920F931F93CF93EC
:1059D000DF93CDB7DEB724970FB6F894DEBF0FBEC6
:1059E000CDBF2B013C0149015A01E982FA820B83A8
:1059F0001C83E0905703F0905803E114F10409F47C
:105A000045C0F70186819781A085B18528173907A0
:105A10004A075B0758F03AC0F70186819781A08555
:105A2000B18588169906AA06BB0638F48701D70106
:105A3000ED90FC90E114F10479F780E190E00E9490
:105A4000E30B9C010097F9F0482059206A207B2045
:105A5000FC01428253826482758286829782A0868C
:105A6000B18689819A81AB81BC8182879387A48723
:105A7000B587D786C686F182E082D8012D933C9304
:105A800080E090E006C08FEF9FEF03C007E513E0D2
:105A9000D4CF24960FB6F894DEBF0FBECDBFDF91F2
:105AA000CF911F910F91FF90EF90DF90CF90BF901B
:105AB000AF909F908F907F906F905F904F900895E0
:105AC000CF93DF93EC0119821882E0915703F09194
:105AD0005803309751F080E090E00190F081E02D84
